{
  "contractName": "TokenBurner",
  "abi": [
    {
      "constant": false,
      "inputs": [],
      "name": "burn",
      "outputs": [],
      "payable": false,
      "stateMutability": "nonpayable",
      "type": "function"
    }
  ],
  "bytecode": "0x6080604052348015600f57600080fd5b50609c8061001e6000396000f300608060405260043610603e5763ffffffff7c010000000000000000000000000000000000000000000000000000000060003504166344df8e7081146043575b600080fd5b348015604e57600080fd5b5060556057565b005b3073ffffffffffffffffffffffffffffffffffffffff16ff00a165627a7a723058204bec98972b040b1cd5701800a0b57e8ff872811228f6761ca1e98613eb9543510029",
  "source": "pragma solidity 0.4.23;\r\n\r\ncontract TokenBurner {\r\n    function burn() public {\r\n        selfdestruct(address(this));\r\n    }\r\n}\r\n",
  "sourcePath": "Q:\\TrueDeck\\TrueDeckTokenBurn\\contracts\\TokenBurner.sol",
  "compiler": {
    "name": "solc",
    "version": "0.4.23+commit.124ca40d.Emscripten.clang"
  },
  "schemaVersion": "2.0.0",
  "updatedAt": "2019-03-06T16:25:26.899Z"
}